{
    "contracts/SupraOracle.sol": {
        "SupraOracle": {
            "abi": [
                {
                    "inputs": [],
                    "stateMutability": "nonpayable",
                    "type": "constructor"
                },
                {
                    "anonymous": false,
                    "inputs": [
                        {
                            "indexed": false,
                            "internalType": "uint256",
                            "name": "pair",
                            "type": "uint256"
                        },
                        {
                            "indexed": false,
                            "internalType": "uint256",
                            "name": "price",
                            "type": "uint256"
                        },
                        {
                            "indexed": false,
                            "internalType": "uint256",
                            "name": "decimals",
                            "type": "uint256"
                        }
                    ],
                    "name": "PairPrice",
                    "type": "event"
                },
                {
                    "inputs": [
                        {
                            "internalType": "bytes",
                            "name": "_bytesProof",
                            "type": "bytes"
                        },
                        {
                            "internalType": "uint256",
                            "name": "pair",
                            "type": "uint256"
                        }
                    ],
                    "name": "GetPairPrice",
                    "outputs": [
                        {
                            "internalType": "uint256",
                            "name": "",
                            "type": "uint256"
                        }
                    ],
                    "stateMutability": "nonpayable",
                    "type": "function"
                },
                {
                    "inputs": [],
                    "name": "oracle",
                    "outputs": [
                        {
                            "internalType": "contract ISupraOraclePull",
                            "name": "",
                            "type": "address"
                        }
                    ],
                    "stateMutability": "view",
                    "type": "function"
                },
                {
                    "inputs": [
                        {
                            "internalType": "contract ISupraOraclePull",
                            "name": "oracle_",
                            "type": "address"
                        }
                    ],
                    "name": "updatePullAddress",
                    "outputs": [],
                    "stateMutability": "nonpayable",
                    "type": "function"
                }
            ],
            "evm": {
                "bytecode": {
                    "linkReferences": {},
                    "object": "608060405234801561001057600080fd5b50600080546001600160a01b031916736bf7b21145cbd7bb0b9916e6eb24eda8a675d7c0179055610553806100466000396000f3fe608060405234801561001057600080fd5b50600436106100415760003560e01c80637dc0d1d014610046578063b8846d9e14610076578063c9f8d05314610097575b600080fd5b600054610059906001600160a01b031681565b6040516001600160a01b0390911681526020015b60405180910390f35b61008961008436600461027a565b6100e1565b60405190815260200161006d565b6100df6100a53660046102f2565b600080547fffffffffffffffffffffffff0000000000000000000000000000000000000000166001600160a01b0392909216919091179055565b005b600080546040517fb3a076f400000000000000000000000000000000000000000000000000000000815282916001600160a01b03169063b3a076f49061012d9088908890600401610322565b6000604051808303816000875af115801561014c573d6000803e3d6000fd5b505050506040513d6000823e601f3d908101601f19168201604052610174919081019061042b565b905060008060005b83515181101561020157858460000151828151811061019d5761019d6104e0565b6020026020010151036101ef57836020015181815181106101c0576101c06104e0565b60200260200101519250836040015181815181106101e0576101e06104e0565b60200260200101519150610201565b806101f9816104f6565b91505061017c565b5081600003610270576040517f08c379a000000000000000000000000000000000000000000000000000000000815260206004820152601860248201527f50616972206e6f7420666f756e6420696e204f7261636c650000000000000000604482015260640160405180910390fd5b5095945050505050565b60008060006040848603121561028f57600080fd5b833567ffffffffffffffff808211156102a757600080fd5b818601915086601f8301126102bb57600080fd5b8135818111156102ca57600080fd5b8760208285010111156102dc57600080fd5b6020928301989097509590910135949350505050565b60006020828403121561030457600080fd5b81356001600160a01b038116811461031b57600080fd5b9392505050565b60208152816020820152818360408301376000818301604090810191909152601f909201601f19160101919050565b634e487b7160e01b600052604160045260246000fd5b6040516060810167ffffffffffffffff8111828210171561038a5761038a610351565b60405290565b600082601f8301126103a157600080fd5b8151602067ffffffffffffffff808311156103be576103be610351565b8260051b604051601f19603f830116810181811084821117156103e3576103e3610351565b60405293845285810183019383810192508785111561040157600080fd5b83870191505b8482101561042057815183529183019190830190610407565b979650505050505050565b60006020828403121561043d57600080fd5b815167ffffffffffffffff8082111561045557600080fd5b908301906060828603121561046957600080fd5b610471610367565b82518281111561048057600080fd5b61048c87828601610390565b8252506020830151828111156104a157600080fd5b6104ad87828601610390565b6020830152506040830151828111156104c557600080fd5b6104d187828601610390565b60408301525095945050505050565b634e487b7160e01b600052603260045260246000fd5b60006001820161051657634e487b7160e01b600052601160045260246000fd5b506001019056fea2646970667358221220d296453335fb329f93610b7c89e9c60bb723be9e78993a2ac01d21221e326ca064736f6c63430008130033",
                    "opcodes": "PUSH1 0x80 PUSH1 0x40 MSTORE CALLVALUE DUP1 ISZERO PUSH2 0x10 JUMPI PUSH1 0x0 DUP1 REVERT JUMPDEST POP PUSH1 0x0 DUP1 SLOAD PUSH1 0x1 PUSH1 0x1 PUSH1 0xA0 SHL SUB NOT AND PUSH20 0x6BF7B21145CBD7BB0B9916E6EB24EDA8A675D7C0 OR SWAP1 SSTORE PUSH2 0x553 DUP1 PUSH2 0x46 PUSH1 0x0 CODECOPY PUSH1 0x0 RETURN INVALID PUSH1 0x80 PUSH1 0x40 MSTORE CALLVALUE DUP1 ISZERO PUSH2 0x10 JUMPI PUSH1 0x0 DUP1 REVERT JUMPDEST POP PUSH1 0x4 CALLDATASIZE LT PUSH2 0x41 JUMPI PUSH1 0x0 CALLDATALOAD PUSH1 0xE0 SHR DUP1 PUSH4 0x7DC0D1D0 EQ PUSH2 0x46 JUMPI DUP1 PUSH4 0xB8846D9E EQ PUSH2 0x76 JUMPI DUP1 PUSH4 0xC9F8D053 EQ PUSH2 0x97 JUMPI JUMPDEST PUSH1 0x0 DUP1 REVERT JUMPDEST PUSH1 0x0 SLOAD PUSH2 0x59 SWAP1 PUSH1 0x1 PUSH1 0x1 PUSH1 0xA0 SHL SUB AND DUP2 JUMP JUMPDEST PUSH1 0x40 MLOAD PUSH1 0x1 PUSH1 0x1 PUSH1 0xA0 SHL SUB SWAP1 SWAP2 AND DUP2 MSTORE PUSH1 0x20 ADD JUMPDEST PUSH1 0x40 MLOAD DUP1 SWAP2 SUB SWAP1 RETURN JUMPDEST PUSH2 0x89 PUSH2 0x84 CALLDATASIZE PUSH1 0x4 PUSH2 0x27A JUMP JUMPDEST PUSH2 0xE1 JUMP JUMPDEST PUSH1 0x40 MLOAD SWAP1 DUP2 MSTORE PUSH1 0x20 ADD PUSH2 0x6D JUMP JUMPDEST PUSH2 0xDF PUSH2 0xA5 CALLDATASIZE PUSH1 0x4 PUSH2 0x2F2 JUMP JUMPDEST PUSH1 0x0 DUP1 SLOAD PUSH32 0xFFFFFFFFFFFFFFFFFFFFFFFF0000000000000000000000000000000000000000 AND PUSH1 0x1 PUSH1 0x1 PUSH1 0xA0 SHL SUB SWAP3 SWAP1 SWAP3 AND SWAP2 SWAP1 SWAP2 OR SWAP1 SSTORE JUMP JUMPDEST STOP JUMPDEST PUSH1 0x0 DUP1 SLOAD PUSH1 0x40 MLOAD PUSH32 0xB3A076F400000000000000000000000000000000000000000000000000000000 DUP2 MSTORE DUP3 SWAP2 PUSH1 0x1 PUSH1 0x1 PUSH1 0xA0 SHL SUB AND SWAP1 PUSH4 0xB3A076F4 SWAP1 PUSH2 0x12D SWAP1 DUP9 SWAP1 DUP9 SWAP1 PUSH1 0x4 ADD PUSH2 0x322 JUMP JUMPDEST PUSH1 0x0 PUSH1 0x40 MLOAD DUP1 DUP4 SUB DUP2 PUSH1 0x0 DUP8 GAS CALL ISZERO DUP1 ISZERO PUSH2 0x14C JUMPI RETURNDATASIZE PUSH1 0x0 DUP1 RETURNDATACOPY RETURNDATASIZE PUSH1 0x0 REVERT JUMPDEST POP POP POP POP PUSH1 0x40 MLOAD RETURNDATASIZE PUSH1 0x0 DUP3 RETURNDATACOPY PUSH1 0x1F RETURNDATASIZE SWAP1 DUP2 ADD PUSH1 0x1F NOT AND DUP3 ADD PUSH1 0x40 MSTORE PUSH2 0x174 SWAP2 SWAP1 DUP2 ADD SWAP1 PUSH2 0x42B JUMP JUMPDEST SWAP1 POP PUSH1 0x0 DUP1 PUSH1 0x0 JUMPDEST DUP4 MLOAD MLOAD DUP2 LT ISZERO PUSH2 0x201 JUMPI DUP6 DUP5 PUSH1 0x0 ADD MLOAD DUP3 DUP2 MLOAD DUP2 LT PUSH2 0x19D JUMPI PUSH2 0x19D PUSH2 0x4E0 JUMP JUMPDEST PUSH1 0x20 MUL PUSH1 0x20 ADD ADD MLOAD SUB PUSH2 0x1EF JUMPI DUP4 PUSH1 0x20 ADD MLOAD DUP2 DUP2 MLOAD DUP2 LT PUSH2 0x1C0 JUMPI PUSH2 0x1C0 PUSH2 0x4E0 JUMP JUMPDEST PUSH1 0x20 MUL PUSH1 0x20 ADD ADD MLOAD SWAP3 POP DUP4 PUSH1 0x40 ADD MLOAD DUP2 DUP2 MLOAD DUP2 LT PUSH2 0x1E0 JUMPI PUSH2 0x1E0 PUSH2 0x4E0 JUMP JUMPDEST PUSH1 0x20 MUL PUSH1 0x20 ADD ADD MLOAD SWAP2 POP PUSH2 0x201 JUMP JUMPDEST DUP1 PUSH2 0x1F9 DUP2 PUSH2 0x4F6 JUMP JUMPDEST SWAP2 POP POP PUSH2 0x17C JUMP JUMPDEST POP DUP2 PUSH1 0x0 SUB PUSH2 0x270 JUMPI PUSH1 0x40 MLOAD PUSH32 0x8C379A000000000000000000000000000000000000000000000000000000000 DUP2 MSTORE PUSH1 0x20 PUSH1 0x4 DUP3 ADD MSTORE PUSH1 0x18 PUSH1 0x24 DUP3 ADD MSTORE PUSH32 0x50616972206E6F7420666F756E6420696E204F7261636C650000000000000000 PUSH1 0x44 DUP3 ADD MSTORE PUSH1 0x64 ADD PUSH1 0x40 MLOAD DUP1 SWAP2 SUB SWAP1 REVERT JUMPDEST POP SWAP6 SWAP5 POP POP POP POP POP JUMP JUMPDEST PUSH1 0x0 DUP1 PUSH1 0x0 PUSH1 0x40 DUP5 DUP7 SUB SLT ISZERO PUSH2 0x28F JUMPI PUSH1 0x0 DUP1 REVERT JUMPDEST DUP4 CALLDATALOAD PUSH8 0xFFFFFFFFFFFFFFFF DUP1 DUP3 GT ISZERO PUSH2 0x2A7 JUMPI PUSH1 0x0 DUP1 REVERT JUMPDEST DUP2 DUP7 ADD SWAP2 POP DUP7 PUSH1 0x1F DUP4 ADD SLT PUSH2 0x2BB JUMPI PUSH1 0x0 DUP1 REVERT JUMPDEST DUP2 CALLDATALOAD DUP2 DUP2 GT ISZERO PUSH2 0x2CA JUMPI PUSH1 0x0 DUP1 REVERT JUMPDEST DUP8 PUSH1 0x20 DUP3 DUP6 ADD ADD GT ISZERO PUSH2 0x2DC JUMPI PUSH1 0x0 DUP1 REVERT JUMPDEST PUSH1 0x20 SWAP3 DUP4 ADD SWAP9 SWAP1 SWAP8 POP SWAP6 SWAP1 SWAP2 ADD CALLDATALOAD SWAP5 SWAP4 POP POP POP POP JUMP JUMPDEST PUSH1 0x0 PUSH1 0x20 DUP3 DUP5 SUB SLT ISZERO PUSH2 0x304 JUMPI PUSH1 0x0 DUP1 REVERT JUMPDEST DUP2 CALLDATALOAD PUSH1 0x1 PUSH1 0x1 PUSH1 0xA0 SHL SUB DUP2 AND DUP2 EQ PUSH2 0x31B JUMPI PUSH1 0x0 DUP1 REVERT JUMPDEST SWAP4 SWAP3 POP POP POP JUMP JUMPDEST PUSH1 0x20 DUP2 MSTORE DUP2 PUSH1 0x20 DUP3 ADD MSTORE DUP2 DUP4 PUSH1 0x40 DUP4 ADD CALLDATACOPY PUSH1 0x0 DUP2 DUP4 ADD PUSH1 0x40 SWAP1 DUP2 ADD SWAP2 SWAP1 SWAP2 MSTORE PUSH1 0x1F SWAP1 SWAP3 ADD PUSH1 0x1F NOT AND ADD ADD SWAP2 SWAP1 POP JUMP JUMPDEST PUSH4 0x4E487B71 PUSH1 0xE0 SHL PUSH1 0x0 MSTORE PUSH1 0x41 PUSH1 0x4 MSTORE PUSH1 0x24 PUSH1 0x0 REVERT JUMPDEST PUSH1 0x40 MLOAD PUSH1 0x60 DUP2 ADD PUSH8 0xFFFFFFFFFFFFFFFF DUP2 GT DUP3 DUP3 LT OR ISZERO PUSH2 0x38A JUMPI PUSH2 0x38A PUSH2 0x351 JUMP JUMPDEST PUSH1 0x40 MSTORE SWAP1 JUMP JUMPDEST PUSH1 0x0 DUP3 PUSH1 0x1F DUP4 ADD SLT PUSH2 0x3A1 JUMPI PUSH1 0x0 DUP1 REVERT JUMPDEST DUP2 MLOAD PUSH1 0x20 PUSH8 0xFFFFFFFFFFFFFFFF DUP1 DUP4 GT ISZERO PUSH2 0x3BE JUMPI PUSH2 0x3BE PUSH2 0x351 JUMP JUMPDEST DUP3 PUSH1 0x5 SHL PUSH1 0x40 MLOAD PUSH1 0x1F NOT PUSH1 0x3F DUP4 ADD AND DUP2 ADD DUP2 DUP2 LT DUP5 DUP3 GT OR ISZERO PUSH2 0x3E3 JUMPI PUSH2 0x3E3 PUSH2 0x351 JUMP JUMPDEST PUSH1 0x40 MSTORE SWAP4 DUP5 MSTORE DUP6 DUP2 ADD DUP4 ADD SWAP4 DUP4 DUP2 ADD SWAP3 POP DUP8 DUP6 GT ISZERO PUSH2 0x401 JUMPI PUSH1 0x0 DUP1 REVERT JUMPDEST DUP4 DUP8 ADD SWAP2 POP JUMPDEST DUP5 DUP3 LT ISZERO PUSH2 0x420 JUMPI DUP2 MLOAD DUP4 MSTORE SWAP2 DUP4 ADD SWAP2 SWAP1 DUP4 ADD SWAP1 PUSH2 0x407 JUMP JUMPDEST SWAP8 SWAP7 POP POP POP POP POP POP POP JUMP JUMPDEST PUSH1 0x0 PUSH1 0x20 DUP3 DUP5 SUB SLT ISZERO PUSH2 0x43D JUMPI PUSH1 0x0 DUP1 REVERT JUMPDEST DUP2 MLOAD PUSH8 0xFFFFFFFFFFFFFFFF DUP1 DUP3 GT ISZERO PUSH2 0x455 JUMPI PUSH1 0x0 DUP1 REVERT JUMPDEST SWAP1 DUP4 ADD SWAP1 PUSH1 0x60 DUP3 DUP7 SUB SLT ISZERO PUSH2 0x469 JUMPI PUSH1 0x0 DUP1 REVERT JUMPDEST PUSH2 0x471 PUSH2 0x367 JUMP JUMPDEST DUP3 MLOAD DUP3 DUP2 GT ISZERO PUSH2 0x480 JUMPI PUSH1 0x0 DUP1 REVERT JUMPDEST PUSH2 0x48C DUP8 DUP3 DUP7 ADD PUSH2 0x390 JUMP JUMPDEST DUP3 MSTORE POP PUSH1 0x20 DUP4 ADD MLOAD DUP3 DUP2 GT ISZERO PUSH2 0x4A1 JUMPI PUSH1 0x0 DUP1 REVERT JUMPDEST PUSH2 0x4AD DUP8 DUP3 DUP7 ADD PUSH2 0x390 JUMP JUMPDEST PUSH1 0x20 DUP4 ADD MSTORE POP PUSH1 0x40 DUP4 ADD MLOAD DUP3 DUP2 GT ISZERO PUSH2 0x4C5 JUMPI PUSH1 0x0 DUP1 REVERT JUMPDEST PUSH2 0x4D1 DUP8 DUP3 DUP7 ADD PUSH2 0x390 JUMP JUMPDEST PUSH1 0x40 DUP4 ADD MSTORE POP SWAP6 SWAP5 POP POP POP POP POP JUMP JUMPDEST PUSH4 0x4E487B71 PUSH1 0xE0 SHL PUSH1 0x0 MSTORE PUSH1 0x32 PUSH1 0x4 MSTORE PUSH1 0x24 PUSH1 0x0 REVERT JUMPDEST PUSH1 0x0 PUSH1 0x1 DUP3 ADD PUSH2 0x516 JUMPI PUSH4 0x4E487B71 PUSH1 0xE0 SHL PUSH1 0x0 MSTORE PUSH1 0x11 PUSH1 0x4 MSTORE PUSH1 0x24 PUSH1 0x0 REVERT JUMPDEST POP PUSH1 0x1 ADD SWAP1 JUMP INVALID LOG2 PUSH5 0x6970667358 0x22 SLT KECCAK256 0xD2 SWAP7 GASLIMIT CALLER CALLDATALOAD 0xFB ORIGIN SWAP16 SWAP4 PUSH2 0xB7C DUP10 0xE9 0xC6 SIGNEXTEND 0xB7 0x23 0xBE SWAP15 PUSH25 0x993A2AC01D21221E326CA064736F6C63430008130033000000 "
                },
                "methodIdentifiers": {
                    "GetPairPrice(bytes,uint256)": "b8846d9e",
                    "oracle()": "7dc0d1d0",
                    "updatePullAddress(address)": "c9f8d053"
                }
            }
        }
    }
}